{
  "_format": "hh-sol-artifact-1",
  "contractName": "MockVault",
  "sourceName": "contracts/MockVault.sol",
  "abi": [
    {
      "inputs": [
        {
          "internalType": "address",
          "name": "_token",
          "type": "address"
        }
      ],
      "stateMutability": "nonpayable",
      "type": "constructor"
    },
    {
      "anonymous": false,
      "inputs": [
        {
          "indexed": true,
          "internalType": "address",
          "name": "user",
          "type": "address"
        },
        {
          "indexed": false,
          "internalType": "uint256",
          "name": "amount",
          "type": "uint256"
        },
        {
          "indexed": false,
          "internalType": "string",
          "name": "protocol",
          "type": "string"
        },
        {
          "indexed": false,
          "internalType": "string",
          "name": "strategy",
          "type": "string"
        },
        {
          "indexed": false,
          "internalType": "uint256",
          "name": "positionId",
          "type": "uint256"
        }
      ],
      "name": "Deposited",
      "type": "event"
    },
    {
      "anonymous": false,
      "inputs": [
        {
          "indexed": true,
          "internalType": "address",
          "name": "user",
          "type": "address"
        },
        {
          "indexed": false,
          "internalType": "uint256",
          "name": "amount",
          "type": "uint256"
        },
        {
          "indexed": false,
          "internalType": "uint256",
          "name": "positionId",
          "type": "uint256"
        }
      ],
      "name": "Withdrawn",
      "type": "event"
    },
    {
      "inputs": [
        {
          "internalType": "uint256",
          "name": "amount",
          "type": "uint256"
        },
        {
          "internalType": "string",
          "name": "protocol",
          "type": "string"
        },
        {
          "internalType": "string",
          "name": "strategy",
          "type": "string"
        }
      ],
      "name": "deposit",
      "outputs": [
        {
          "internalType": "uint256",
          "name": "",
          "type": "uint256"
        }
      ],
      "stateMutability": "nonpayable",
      "type": "function"
    },
    {
      "inputs": [
        {
          "internalType": "address",
          "name": "user",
          "type": "address"
        }
      ],
      "name": "getPositionCount",
      "outputs": [
        {
          "internalType": "uint256",
          "name": "",
          "type": "uint256"
        }
      ],
      "stateMutability": "view",
      "type": "function"
    },
    {
      "inputs": [
        {
          "internalType": "address",
          "name": "user",
          "type": "address"
        }
      ],
      "name": "getPositions",
      "outputs": [
        {
          "components": [
            {
              "internalType": "uint256",
              "name": "amount",
              "type": "uint256"
            },
            {
              "internalType": "string",
              "name": "protocol",
              "type": "string"
            },
            {
              "internalType": "string",
              "name": "strategy",
              "type": "string"
            },
            {
              "internalType": "uint256",
              "name": "timestamp",
              "type": "uint256"
            }
          ],
          "internalType": "struct MockVault.Position[]",
          "name": "",
          "type": "tuple[]"
        }
      ],
      "stateMutability": "view",
      "type": "function"
    },
    {
      "inputs": [
        {
          "internalType": "address",
          "name": "user",
          "type": "address"
        }
      ],
      "name": "getTotalDeposit",
      "outputs": [
        {
          "internalType": "uint256",
          "name": "",
          "type": "uint256"
        }
      ],
      "stateMutability": "view",
      "type": "function"
    },
    {
      "inputs": [],
      "name": "token",
      "outputs": [
        {
          "internalType": "contract IERC20",
          "name": "",
          "type": "address"
        }
      ],
      "stateMutability": "view",
      "type": "function"
    },
    {
      "inputs": [
        {
          "internalType": "address",
          "name": "",
          "type": "address"
        }
      ],
      "name": "totalDeposits",
      "outputs": [
        {
          "internalType": "uint256",
          "name": "",
          "type": "uint256"
        }
      ],
      "stateMutability": "view",
      "type": "function"
    },
    {
      "inputs": [
        {
          "internalType": "address",
          "name": "",
          "type": "address"
        },
        {
          "internalType": "uint256",
          "name": "",
          "type": "uint256"
        }
      ],
      "name": "userPositions",
      "outputs": [
        {
          "internalType": "uint256",
          "name": "amount",
          "type": "uint256"
        },
        {
          "internalType": "string",
          "name": "protocol",
          "type": "string"
        },
        {
          "internalType": "string",
          "name": "strategy",
          "type": "string"
        },
        {
          "internalType": "uint256",
          "name": "timestamp",
          "type": "uint256"
        }
      ],
      "stateMutability": "view",
      "type": "function"
    },
    {
      "inputs": [
        {
          "internalType": "uint256",
          "name": "positionId",
          "type": "uint256"
        }
      ],
      "name": "withdraw",
      "outputs": [],
      "stateMutability": "nonpayable",
      "type": "function"
    }
  ],
  "bytecode": "0x60a06040523480156200001157600080fd5b50604051620019dc380380620019dc8339818101604052810190620000379190620000dc565b8073ffffffffffffffffffffffffffffffffffffffff1660808173ffffffffffffffffffffffffffffffffffffffff1681525050506200010e565b600080fd5b600073ffffffffffffffffffffffffffffffffffffffff82169050919050565b6000620000a48262000077565b9050919050565b620000b68162000097565b8114620000c257600080fd5b50565b600081519050620000d681620000ab565b92915050565b600060208284031215620000f557620000f462000072565b5b60006200010584828501620000c5565b91505092915050565b6080516118a462000138600039600081816103cc015281816108c50152610be301526118a46000f3fe608060405234801561001057600080fd5b50600436106100885760003560e01c8063857184d11161005b578063857184d11461013c57806397695d931461016c578063e94032561461019c578063fc0c546a146101cc57610088565b80630234b4451461008d5780632e1a7d4d146100bd5780633eeb530e146100d95780635e1b4d9914610109575b600080fd5b6100a760048036038101906100a29190610c6d565b6101ea565b6040516100b49190610cb3565b60405180910390f35b6100d760048036038101906100d29190610cfa565b610235565b005b6100f360048036038101906100ee9190610c6d565b6104be565b6040516101009190610ef2565b60405180910390f35b610123600480360381019061011e9190610f14565b610693565b6040516101339493929190610f9e565b60405180910390f35b61015660048036038101906101519190610c6d565b6107f0565b6040516101639190610cb3565b60405180910390f35b61018660048036038101906101819190611056565b610839565b6040516101939190610cb3565b60405180910390f35b6101b660048036038101906101b19190610c6d565b610bc9565b6040516101c39190610cb3565b60405180910390f35b6101d4610be1565b6040516101e1919061114a565b60405180910390f35b60008060008373ffffffffffffffffffffffffffffffffffffffff1673ffffffffffffffffffffffffffffffffffffffff168152602001908152602001600020805490509050919050565b6000803373ffffffffffffffffffffffffffffffffffffffff1673ffffffffffffffffffffffffffffffffffffffff1681526020019081526020016000208054905081106102b8576040517f08c379a00000000000000000000000000000000000000000000000000000000081526004016102af906111b1565b60405180910390fd5b60008060003373ffffffffffffffffffffffffffffffffffffffff1673ffffffffffffffffffffffffffffffffffffffff168152602001908152602001600020828154811061030a576103096111d1565b5b906000526020600020906004020190506000816000015411610361576040517f08c379a00000000000000000000000000000000000000000000000000000000081526004016103589061124c565b60405180910390fd5b6000816000015490506000826000018190555080600160003373ffffffffffffffffffffffffffffffffffffffff1673ffffffffffffffffffffffffffffffffffffffff16815260200190815260200160002060008282546103c3919061129b565b925050819055507f000000000000000000000000000000000000000000000000000000000000000073ffffffffffffffffffffffffffffffffffffffff1663a9059cbb33836040518363ffffffff1660e01b81526004016104259291906112de565b6020604051808303816000875af1158015610444573d6000803e3d6000fd5b505050506040513d601f19601f82011682018060405250810190610468919061133f565b503373ffffffffffffffffffffffffffffffffffffffff167f92ccf450a286a957af52509bc1c9939d1a6a481783e142e41e2499f0bb66ebc682856040516104b192919061136c565b60405180910390a2505050565b60606000808373ffffffffffffffffffffffffffffffffffffffff1673ffffffffffffffffffffffffffffffffffffffff168152602001908152602001600020805480602002602001604051908101604052809291908181526020016000905b8282101561068857838290600052602060002090600402016040518060800160405290816000820154815260200160018201805461055b906113c4565b80601f0160208091040260200160405190810160405280929190818152602001828054610587906113c4565b80156105d45780601f106105a9576101008083540402835291602001916105d4565b820191906000526020600020905b8154815290600101906020018083116105b757829003601f168201915b505050505081526020016002820180546105ed906113c4565b80601f0160208091040260200160405190810160405280929190818152602001828054610619906113c4565b80156106665780601f1061063b57610100808354040283529160200191610666565b820191906000526020600020905b81548152906001019060200180831161064957829003601f168201915b505050505081526020016003820154815250508152602001906001019061051e565b505050509050919050565b600060205281600052604060002081815481106106af57600080fd5b9060005260206000209060040201600091509150508060000154908060010180546106d9906113c4565b80601f0160208091040260200160405190810160405280929190818152602001828054610705906113c4565b80156107525780601f1061072757610100808354040283529160200191610752565b820191906000526020600020905b81548152906001019060200180831161073557829003601f168201915b505050505090806002018054610767906113c4565b80601f0160208091040260200160405190810160405280929190818152602001828054610793906113c4565b80156107e05780601f106107b5576101008083540402835291602001916107e0565b820191906000526020600020905b8154815290600101906020018083116107c357829003601f168201915b5050505050908060030154905084565b6000600160008373ffffffffffffffffffffffffffffffffffffffff1673ffffffffffffffffffffffffffffffffffffffff168152602001908152602001600020549050919050565b600080861161087d576040517f08c379a000000000000000000000000000000000000000000000000000000000815260040161087490611441565b60405180910390fd5b600085859050116108c3576040517f08c379a00000000000000000000000000000000000000000000000000000000081526004016108ba906114ad565b60405180910390fd5b7f000000000000000000000000000000000000000000000000000000000000000073ffffffffffffffffffffffffffffffffffffffff166323b872dd3330896040518463ffffffff1660e01b8152600401610920939291906114cd565b6020604051808303816000875af115801561093f573d6000803e3d6000fd5b505050506040513d601f19601f82011682018060405250810190610963919061133f565b506000604051806080016040528088815260200187878080601f016020809104026020016040519081016040528093929190818152602001838380828437600081840152601f19601f82011690508083019250505050505050815260200185858080601f016020809104026020016040519081016040528093929190818152602001838380828437600081840152601f19601f8201169050808301925050505050505081526020014281525090506000803373ffffffffffffffffffffffffffffffffffffffff1673ffffffffffffffffffffffffffffffffffffffff168152602001908152602001600020819080600181540180825580915050600190039060005260206000209060040201600090919091909150600082015181600001556020820151816001019081610a9891906116d5565b506040820151816002019081610aae91906116d5565b5060608201518160030155505086600160003373ffffffffffffffffffffffffffffffffffffffff1673ffffffffffffffffffffffffffffffffffffffff1681526020019081526020016000206000828254610b0a91906117a7565b92505081905550600060016000803373ffffffffffffffffffffffffffffffffffffffff1673ffffffffffffffffffffffffffffffffffffffff16815260200190815260200160002080549050610b61919061129b565b90503373ffffffffffffffffffffffffffffffffffffffff167f35676c3ea684015c4593c5605602c417103d4ac5f3d36ce38a310b144420f437898989898987604051610bb396959493929190611817565b60405180910390a2809250505095945050505050565b60016020528060005260406000206000915090505481565b7f000000000000000000000000000000000000000000000000000000000000000081565b600080fd5b600080fd5b600073ffffffffffffffffffffffffffffffffffffffff82169050919050565b6000610c3a82610c0f565b9050919050565b610c4a81610c2f565b8114610c5557600080fd5b50565b600081359050610c6781610c41565b92915050565b600060208284031215610c8357610c82610c05565b5b6000610c9184828501610c58565b91505092915050565b6000819050919050565b610cad81610c9a565b82525050565b6000602082019050610cc86000830184610ca4565b92915050565b610cd781610c9a565b8114610ce257600080fd5b50565b600081359050610cf481610cce565b92915050565b600060208284031215610d1057610d0f610c05565b5b6000610d1e84828501610ce5565b91505092915050565b600081519050919050565b600082825260208201905092915050565b6000819050602082019050919050565b610d5c81610c9a565b82525050565b600081519050919050565b600082825260208201905092915050565b60005b83811015610d9c578082015181840152602081019050610d81565b60008484015250505050565b6000601f19601f8301169050919050565b6000610dc482610d62565b610dce8185610d6d565b9350610dde818560208601610d7e565b610de781610da8565b840191505092915050565b6000608083016000830151610e0a6000860182610d53565b5060208301518482036020860152610e228282610db9565b91505060408301518482036040860152610e3c8282610db9565b9150506060830151610e516060860182610d53565b508091505092915050565b6000610e688383610df2565b905092915050565b6000602082019050919050565b6000610e8882610d27565b610e928185610d32565b935083602082028501610ea485610d43565b8060005b85811015610ee05784840389528151610ec18582610e5c565b9450610ecc83610e70565b925060208a01995050600181019050610ea8565b50829750879550505050505092915050565b60006020820190508181036000830152610f0c8184610e7d565b905092915050565b60008060408385031215610f2b57610f2a610c05565b5b6000610f3985828601610c58565b9250506020610f4a85828601610ce5565b9150509250929050565b600082825260208201905092915050565b6000610f7082610d62565b610f7a8185610f54565b9350610f8a818560208601610d7e565b610f9381610da8565b840191505092915050565b6000608082019050610fb36000830187610ca4565b8181036020830152610fc58186610f65565b90508181036040830152610fd98185610f65565b9050610fe86060830184610ca4565b95945050505050565b600080fd5b600080fd5b600080fd5b60008083601f84011261101657611015610ff1565b5b8235905067ffffffffffffffff81111561103357611032610ff6565b5b60208301915083600182028301111561104f5761104e610ffb565b5b9250929050565b60008060008060006060868803121561107257611071610c05565b5b600061108088828901610ce5565b955050602086013567ffffffffffffffff8111156110a1576110a0610c0a565b5b6110ad88828901611000565b9450945050604086013567ffffffffffffffff8111156110d0576110cf610c0a565b5b6110dc88828901611000565b92509250509295509295909350565b6000819050919050565b600061111061110b61110684610c0f565b6110eb565b610c0f565b9050919050565b6000611122826110f5565b9050919050565b600061113482611117565b9050919050565b61114481611129565b82525050565b600060208201905061115f600083018461113b565b92915050565b7f496e76616c696420706f736974696f6e00000000000000000000000000000000600082015250565b600061119b601083610f54565b91506111a682611165565b602082019050919050565b600060208201905081810360008301526111ca8161118e565b9050919050565b7f4e487b7100000000000000000000000000000000000000000000000000000000600052603260045260246000fd5b7f506f736974696f6e20616c72656164792077697468647261776e000000000000600082015250565b6000611236601a83610f54565b915061124182611200565b602082019050919050565b6000602082019050818103600083015261126581611229565b9050919050565b7f4e487b7100000000000000000000000000000000000000000000000000000000600052601160045260246000fd5b60006112a682610c9a565b91506112b183610c9a565b92508282039050818111156112c9576112c861126c565b5b92915050565b6112d881610c2f565b82525050565b60006040820190506112f360008301856112cf565b6113006020830184610ca4565b9392505050565b60008115159050919050565b61131c81611307565b811461132757600080fd5b50565b60008151905061133981611313565b92915050565b60006020828403121561135557611354610c05565b5b60006113638482850161132a565b91505092915050565b60006040820190506113816000830185610ca4565b61138e6020830184610ca4565b9392505050565b7f4e487b7100000000000000000000000000000000000000000000000000000000600052602260045260246000fd5b600060028204905060018216806113dc57607f821691505b6020821081036113ef576113ee611395565b5b50919050565b7f416d6f756e74206d757374206265203e20300000000000000000000000000000600082015250565b600061142b601283610f54565b9150611436826113f5565b602082019050919050565b6000602082019050818103600083015261145a8161141e565b9050919050565b7f50726f746f636f6c207265717569726564000000000000000000000000000000600082015250565b6000611497601183610f54565b91506114a282611461565b602082019050919050565b600060208201905081810360008301526114c68161148a565b9050919050565b60006060820190506114e260008301866112cf565b6114ef60208301856112cf565b6114fc6040830184610ca4565b949350505050565b7f4e487b7100000000000000000000000000000000000000000000000000000000600052604160045260246000fd5b60008190508160005260206000209050919050565b60006020601f8301049050919050565b600082821b905092915050565b6000600883026115957fffffffffffffffffffffffffffffffffffffffffffffffffffffffffffffffff82611558565b61159f8683611558565b95508019841693508086168417925050509392505050565b60006115d26115cd6115c884610c9a565b6110eb565b610c9a565b9050919050565b6000819050919050565b6115ec836115b7565b6116006115f8826115d9565b848454611565565b825550505050565b600090565b611615611608565b6116208184846115e3565b505050565b5b818110156116445761163960008261160d565b600181019050611626565b5050565b601f8211156116895761165a81611533565b61166384611548565b81016020851015611672578190505b61168661167e85611548565b830182611625565b50505b505050565b600082821c905092915050565b60006116ac6000198460080261168e565b1980831691505092915050565b60006116c5838361169b565b9150826002028217905092915050565b6116de82610d62565b67ffffffffffffffff8111156116f7576116f6611504565b5b61170182546113c4565b61170c828285611648565b600060209050601f83116001811461173f576000841561172d578287015190505b61173785826116b9565b86555061179f565b601f19841661174d86611533565b60005b8281101561177557848901518255600182019150602085019450602081019050611750565b86831015611792578489015161178e601f89168261169b565b8355505b6001600288020188555050505b505050505050565b60006117b282610c9a565b91506117bd83610c9a565b92508282019050808211156117d5576117d461126c565b5b92915050565b82818337600083830152505050565b60006117f68385610f54565b93506118038385846117db565b61180c83610da8565b840190509392505050565b600060808201905061182c6000830189610ca4565b818103602083015261183f8187896117ea565b905081810360408301526118548185876117ea565b90506118636060830184610ca4565b97965050505050505056fea264697066735822122071825ee56f3869a4bab2d0535e1940a6e9ff10859c077c980faaf2aede0dc59f64736f6c63430008140033",
  "linkReferences": {},
  "deployedLinkReferences": {}
}